{
    "abi": [
        {
            "type": "function",
            "name": "WithdrawUnVestedTokens",
            "inputs": [],
            "outputs": [],
            "stateMutability": "nonpayable"
        },
        {
            "type": "function",
            "name": "addStakeholder",
            "inputs": [
                {
                    "name": "_stakeHolder",
                    "type": "address",
                    "internalType": "address"
                },
                {
                    "name": "_amount",
                    "type": "uint256",
                    "internalType": "uint256"
                },
                {
                    "name": "_vestingPeriod",
                    "type": "uint256",
                    "internalType": "uint256"
                }
            ],
            "outputs": [],
            "stateMutability": "nonpayable"
        },
        {
            "type": "function",
            "name": "claimVestedTokens",
            "inputs": [
                {
                    "name": "organizationOwnerAddress",
                    "type": "address",
                    "internalType": "address"
                }
            ],
            "outputs": [],
            "stateMutability": "nonpayable"
        },
        {
            "type": "function",
            "name": "getOrganization",
            "inputs": [
                {
                    "name": "owner",
                    "type": "address",
                    "internalType": "address"
                }
            ],
            "outputs": [
                {
                    "name": "",
                    "type": "tuple",
                    "internalType": "struct Vesting.Organization",
                    "components": [
                        {
                            "name": "organizationName",
                            "type": "string",
                            "internalType": "string"
                        },
                        {
                            "name": "owner",
                            "type": "address",
                            "internalType": "address"
                        },
                        {
                            "name": "token",
                            "type": "address",
                            "internalType": "contract Token"
                        },
                        {
                            "name": "stakeholders",
                            "type": "address[]",
                            "internalType": "address[]"
                        }
                    ]
                }
            ],
            "stateMutability": "view"
        },
        {
            "type": "function",
            "name": "getOrganizationsForStakeholder",
            "inputs": [
                {
                    "name": "stakeHolder",
                    "type": "address",
                    "internalType": "address"
                }
            ],
            "outputs": [
                {
                    "name": "",
                    "type": "address[]",
                    "internalType": "address[]"
                }
            ],
            "stateMutability": "view"
        },
        {
            "type": "function",
            "name": "getStakeholder",
            "inputs": [
                {
                    "name": "organizationOWner",
                    "type": "address",
                    "internalType": "address"
                },
                {
                    "name": "stakeHolder",
                    "type": "address",
                    "internalType": "address"
                }
            ],
            "outputs": [
                {
                    "name": "",
                    "type": "tuple",
                    "internalType": "struct Vesting.StakeHolder",
                    "components": [
                        {
                            "name": "vestingPeriod",
                            "type": "uint256",
                            "internalType": "uint256"
                        },
                        {
                            "name": "amount",
                            "type": "uint256",
                            "internalType": "uint256"
                        },
                        {
                            "name": "startTime",
                            "type": "uint256",
                            "internalType": "uint256"
                        },
                        {
                            "name": "claimed",
                            "type": "bool",
                            "internalType": "bool"
                        },
                        {
                            "name": "stakeholder",
                            "type": "address",
                            "internalType": "address"
                        },
                        {
                            "name": "organizationTokenAddress",
                            "type": "address",
                            "internalType": "contract Token"
                        }
                    ]
                }
            ],
            "stateMutability": "view"
        },
        {
            "type": "function",
            "name": "getTotalVestedAmount",
            "inputs": [
                {
                    "name": "organizationOwnerAddress",
                    "type": "address",
                    "internalType": "address"
                }
            ],
            "outputs": [
                {
                    "name": "",
                    "type": "uint256",
                    "internalType": "uint256"
                }
            ],
            "stateMutability": "view"
        },
        {
            "type": "function",
            "name": "register",
            "inputs": [
                {
                    "name": "_organizationName",
                    "type": "string",
                    "internalType": "string"
                },
                {
                    "name": "tokenName",
                    "type": "string",
                    "internalType": "string"
                },
                {
                    "name": "tokenSymbol",
                    "type": "string",
                    "internalType": "string"
                },
                {
                    "name": "intialSupply",
                    "type": "uint256",
                    "internalType": "uint256"
                }
            ],
            "outputs": [],
            "stateMutability": "nonpayable"
        },
        {
            "type": "event",
            "name": "OrganizationRegistered",
            "inputs": [
                {
                    "name": "organizationName",
                    "type": "string",
                    "indexed": true,
                    "internalType": "string"
                },
                {
                    "name": "owner",
                    "type": "address",
                    "indexed": false,
                    "internalType": "address"
                }
            ],
            "anonymous": false
        },
        {
            "type": "event",
            "name": "StakeHolderAdded",
            "inputs": [
                {
                    "name": "organizationName",
                    "type": "string",
                    "indexed": true,
                    "internalType": "string"
                },
                {
                    "name": "stakeHolder",
                    "type": "address",
                    "indexed": false,
                    "internalType": "address"
                },
                {
                    "name": "vestingPeriod",
                    "type": "uint256",
                    "indexed": false,
                    "internalType": "uint256"
                },
                {
                    "name": "amount",
                    "type": "uint256",
                    "indexed": false,
                    "internalType": "uint256"
                }
            ],
            "anonymous": false
        },
        {
            "type": "event",
            "name": "VestedTokenClaimed",
            "inputs": [
                {
                    "name": "stakeholder",
                    "type": "address",
                    "indexed": true,
                    "internalType": "address"
                },
                {
                    "name": "amount",
                    "type": "uint256",
                    "indexed": false,
                    "internalType": "uint256"
                }
            ],
            "anonymous": false
        },
        {
            "type": "error",
            "name": "Vesting__CallerIsNotOrganizationOwner",
            "inputs": [
                {
                    "name": "callerAddress",
                    "type": "address",
                    "internalType": "address"
                }
            ]
        },
        {
            "type": "error",
            "name": "Vesting__CallerIsNotStakeholder",
            "inputs": [
                {
                    "name": "callerAddress",
                    "type": "address",
                    "internalType": "address"
                }
            ]
        },
        {
            "type": "error",
            "name": "Vesting__InitialTokenSupplyIsLow",
            "inputs": []
        },
        {
            "type": "error",
            "name": "Vesting__InsufficientTokenBalanceToVest",
            "inputs": []
        },
        {
            "type": "error",
            "name": "Vesting__InsufficientUnVestedTokens",
            "inputs": []
        },
        {
            "type": "error",
            "name": "Vesting__InvalidStakeHolderAddress",
            "inputs": []
        },
        {
            "type": "error",
            "name": "Vesting__OnlyOrganizationOwner",
            "inputs": [
                {
                    "name": "callerAddress",
                    "type": "address",
                    "internalType": "address"
                }
            ]
        },
        {
            "type": "error",
            "name": "Vesting__OrganizationDoesNotExits",
            "inputs": []
        },
        {
            "type": "error",
            "name": "Vesting__OrganizationExits",
            "inputs": []
        },
        {
            "type": "error",
            "name": "Vesting__VestPeriodNotOver",
            "inputs": []
        },
        {
            "type": "error",
            "name": "Vesting__VestedTokensAlreadyClaimed",
            "inputs": []
        },
        {
            "type": "error",
            "name": "Vesting__VestingAmountLessThanZero",
            "inputs": []
        },
        {
            "type": "error",
            "name": "Vesting__VestingPeriodLessThanZero",
            "inputs": [
                {
                    "name": "period",
                    "type": "uint256",
                    "internalType": "uint256"
                }
            ]
        }
    ],
    "bytecode": {
        "object": "0x6080604052348015600f57600080fd5b506146358061001f6000396000f3fe608060405234801561001057600080fd5b50600436106100885760003560e01c806398f3b12d1161005b57806398f3b12d146100ff578063d2c30a6d1461011b578063d3715c761461014b578063dddca3de1461017b57610088565b806302110d251461008d5780630e916501146100a9578063279eda16146100d95780634beab898146100e3575b600080fd5b6100a760048036038101906100a29190611cf4565b6101ab565b005b6100c360048036038101906100be9190611e1b565b6104db565b6040516100d09190611f6e565b60405180910390f35b6100e1610657565b005b6100fd60048036038101906100f89190611f89565b610adc565b005b61011960048036038101906101149190611fdc565b611392565b005b61013560048036038101906101309190611fdc565b611850565b60405161014291906121b2565b60405180910390f35b61016560048036038101906101609190611fdc565b611a74565b60405161017291906121e3565b60405180910390f35b61019560048036038101906101909190611fdc565b611abd565b6040516101a2919061226d565b60405180910390f35b600073ffffffffffffffffffffffffffffffffffffffff166000803373ffffffffffffffffffffffffffffffffffffffff1673ffffffffffffffffffffffffffffffffffffffff16815260200190815260200160002060010160009054906101000a900473ffffffffffffffffffffffffffffffffffffffff1673ffffffffffffffffffffffffffffffffffffffff1614610272576040517fa4e8ae6900000000000000000000000000000000000000000000000000000000815260040160405180910390fd5b600081116102ac576040517f34d1bacc00000000000000000000000000000000000000000000000000000000815260040160405180910390fd5b600085858585856040516102bf90611b8a565b6102cd9594939291906122dc565b604051809103906000f0801580156102e9573d6000803e3d6000fd5b50905087876000803373ffffffffffffffffffffffffffffffffffffffff1673ffffffffffffffffffffffffffffffffffffffff168152602001908152602001600020600001918261033c929190612561565b50336000803373ffffffffffffffffffffffffffffffffffffffff1673ffffffffffffffffffffffffffffffffffffffff16815260200190815260200160002060010160006101000a81548173ffffffffffffffffffffffffffffffffffffffff021916908373ffffffffffffffffffffffffffffffffffffffff160217905550806000803373ffffffffffffffffffffffffffffffffffffffff1673ffffffffffffffffffffffffffffffffffffffff16815260200190815260200160002060020160006101000a81548173ffffffffffffffffffffffffffffffffffffffff021916908373ffffffffffffffffffffffffffffffffffffffff1602179055506000600360003373ffffffffffffffffffffffffffffffffffffffff1673ffffffffffffffffffffffffffffffffffffffff168152602001908152602001600020819055508787604051610492929190612661565b60405180910390207ff8ec6500e5c7bea961998f7c5b87721252c58c15c3537dc259bc55d79c70f1b6336040516104c99190612689565b60405180910390a25050505050505050565b6104e3611b97565b600160008473ffffffffffffffffffffffffffffffffffffffff1673ffffffffffffffffffffffffffffffffffffffff16815260200190815260200160002060008373ffffffffffffffffffffffffffffffffffffffff1673ffffffffffffffffffffffffffffffffffffffff1681526020019081526020016000206040518060c00160405290816000820154815260200160018201548152602001600282015481526020016003820160009054906101000a900460ff161515151581526020016003820160019054906101000a900473ffffffffffffffffffffffffffffffffffffffff1673ffffffffffffffffffffffffffffffffffffffff1673ffffffffffffffffffffffffffffffffffffffff1681526020016004820160009054906101000a900473ffffffffffffffffffffffffffffffffffffffff1673ffffffffffffffffffffffffffffffffffffffff1673ffffffffffffffffffffffffffffffffffffffff1681525050905092915050565b60008060003373ffffffffffffffffffffffffffffffffffffffff1673ffffffffffffffffffffffffffffffffffffffff1681526020019081526020016000206040518060800160405290816000820180546106b29061238e565b80601f01602080910402602001604051908101604052809291908181526020018280546106de9061238e565b801561072b5780601f106107005761010080835404028352916020019161072b565b820191906000526020600020905b81548152906001019060200180831161070e57829003601f168201915b505050505081526020016001820160009054906101000a900473ffffffffffffffffffffffffffffffffffffffff1673ffffffffffffffffffffffffffffffffffffffff1673ffffffffffffffffffffffffffffffffffffffff1681526020016002820160009054906101000a900473ffffffffffffffffffffffffffffffffffffffff1673ffffffffffffffffffffffffffffffffffffffff1673ffffffffffffffffffffffffffffffffffffffff1681526020016003820180548060200260200160405190810160405280929190818152602001828054801561086557602002820191906000526020600020905b8160009054906101000a900473ffffffffffffffffffffffffffffffffffffffff1673ffffffffffffffffffffffffffffffffffffffff168152602001906001019080831161081b575b50505050508152505090503373ffffffffffffffffffffffffffffffffffffffff16816020015173ffffffffffffffffffffffffffffffffffffffff16146108e457336040517f890c257a0000000000000000000000000000000000000000000000000000000081526004016108db9190612689565b60405180910390fd5b600360003373ffffffffffffffffffffffffffffffffffffffff1673ffffffffffffffffffffffffffffffffffffffff16815260200190815260200160002054816040015173ffffffffffffffffffffffffffffffffffffffff166370a08231306040518263ffffffff1660e01b81526004016109619190612689565b602060405180830381865afa15801561097e573d6000803e3d6000fd5b505050506040513d601f19601f820116820180604052508101906109a291906126b9565b116109d9576040517ff93f045500000000000000000000000000000000000000000000000000000000815260040160405180910390fd5b806040015173ffffffffffffffffffffffffffffffffffffffff1663a9059cbb33836040015173ffffffffffffffffffffffffffffffffffffffff166370a08231306040518263ffffffff1660e01b8152600401610a379190612689565b602060405180830381865afa158015610a54573d6000803e3d6000fd5b505050506040513d601f19601f82011682018060405250810190610a7891906126b9565b6040518363ffffffff1660e01b8152600401610a959291906126e6565b6020604051808303816000875af1158015610ab4573d6000803e3d6000fd5b505050506040513d601f19601f82011682018060405250810190610ad8919061273b565b5050565b600073ffffffffffffffffffffffffffffffffffffffff168373ffffffffffffffffffffffffffffffffffffffff1603610b42576040517f4a64eb3900000000000000000000000000000000000000000000000000000000815260040160405180910390fd5b60008111610b8757806040517fe1d7d6ae000000000000000000000000000000000000000000000000000000008152600401610b7e91906121e3565b60405180910390fd5b60008211610bc1576040517f757a5ba500000000000000000000000000000000000000000000000000000000815260040160405180910390fd5b81600360003373ffffffffffffffffffffffffffffffffffffffff1673ffffffffffffffffffffffffffffffffffffffff16815260200190815260200160002054610c0c9190612797565b6000803373ffffffffffffffffffffffffffffffffffffffff1673ffffffffffffffffffffffffffffffffffffffff16815260200190815260200160002060020160009054906101000a900473ffffffffffffffffffffffffffffffffffffffff1673ffffffffffffffffffffffffffffffffffffffff166370a08231306040518263ffffffff1660e01b8152600401610ca69190612689565b602060405180830381865afa158015610cc3573d6000803e3d6000fd5b505050506040513d601f19601f82011682018060405250810190610ce791906126b9565b1015610d1f576040517f2d261e3a00000000000000000000000000000000000000000000000000000000815260040160405180910390fd5b600073ffffffffffffffffffffffffffffffffffffffff166000803373ffffffffffffffffffffffffffffffffffffffff1673ffffffffffffffffffffffffffffffffffffffff16815260200190815260200160002060010160009054906101000a900473ffffffffffffffffffffffffffffffffffffffff1673ffffffffffffffffffffffffffffffffffffffff1603610de6576040517fc4fc6b5800000000000000000000000000000000000000000000000000000000815260040160405180910390fd5b3373ffffffffffffffffffffffffffffffffffffffff166000803373ffffffffffffffffffffffffffffffffffffffff1673ffffffffffffffffffffffffffffffffffffffff16815260200190815260200160002060010160009054906101000a900473ffffffffffffffffffffffffffffffffffffffff1673ffffffffffffffffffffffffffffffffffffffff1614610eb757336040517f943ee2bf000000000000000000000000000000000000000000000000000000008152600401610eae9190612689565b60405180910390fd5b60008060003373ffffffffffffffffffffffffffffffffffffffff1673ffffffffffffffffffffffffffffffffffffffff16815260200190815260200160002060010160009054906101000a900473ffffffffffffffffffffffffffffffffffffffff16905060008060003373ffffffffffffffffffffffffffffffffffffffff1673ffffffffffffffffffffffffffffffffffffffff16815260200190815260200160002060020160009054906101000a900473ffffffffffffffffffffffffffffffffffffffff1690506000803373ffffffffffffffffffffffffffffffffffffffff1673ffffffffffffffffffffffffffffffffffffffff168152602001908152602001600020600301859080600181540180825580915050600190039060005260206000200160009091909190916101000a81548173ffffffffffffffffffffffffffffffffffffffff021916908373ffffffffffffffffffffffffffffffffffffffff1602179055506040518060c001604052808481526020018581526020014281526020016000151581526020018673ffffffffffffffffffffffffffffffffffffffff1681526020018273ffffffffffffffffffffffffffffffffffffffff16815250600160008473ffffffffffffffffffffffffffffffffffffffff1673ffffffffffffffffffffffffffffffffffffffff16815260200190815260200160002060008773ffffffffffffffffffffffffffffffffffffffff1673ffffffffffffffffffffffffffffffffffffffff16815260200190815260200160002060008201518160000155602082015181600101556040820151816002015560608201518160030160006101000a81548160ff02191690831515021790555060808201518160030160016101000a81548173ffffffffffffffffffffffffffffffffffffffff021916908373ffffffffffffffffffffffffffffffffffffffff16021790555060a08201518160040160006101000a81548173ffffffffffffffffffffffffffffffffffffffff021916908373ffffffffffffffffffffffffffffffffffffffff160217905550905050600260008673ffffffffffffffffffffffffffffffffffffffff1673ffffffffffffffffffffffffffffffffffffffff168152602001908152602001600020829080600181540180825580915050600190039060005260206000200160009091909190916101000a81548173ffffffffffffffffffffffffffffffffffffffff021916908373ffffffffffffffffffffffffffffffffffffffff16021790555083600360003373ffffffffffffffffffffffffffffffffffffffff1673ffffffffffffffffffffffffffffffffffffffff168152602001908152602001600020546112b79190612797565b600360003373ffffffffffffffffffffffffffffffffffffffff1673ffffffffffffffffffffffffffffffffffffffff168152602001908152602001600020819055506000803373ffffffffffffffffffffffffffffffffffffffff1673ffffffffffffffffffffffffffffffffffffffff168152602001908152602001600020600001604051611348919061284e565b60405180910390207f71aada5ecfe27eeb24372cfd00de9697432f41b3e84b42576b774ebf2b925b5686858760405161138393929190612865565b60405180910390a25050505050565b6000600160008373ffffffffffffffffffffffffffffffffffffffff1673ffffffffffffffffffffffffffffffffffffffff16815260200190815260200160002060003373ffffffffffffffffffffffffffffffffffffffff1673ffffffffffffffffffffffffffffffffffffffff16815260200190815260200160002090508060030160009054906101000a900460ff161561145b576040517f0fbfc05500000000000000000000000000000000000000000000000000000000815260040160405180910390fd5b8060020154816000015461146f9190612797565b4210156114a8576040517f3e01216d00000000000000000000000000000000000000000000000000000000815260040160405180910390fd5b3373ffffffffffffffffffffffffffffffffffffffff168160030160019054906101000a900473ffffffffffffffffffffffffffffffffffffffff1673ffffffffffffffffffffffffffffffffffffffff161461153c57336040517f4746a2ac0000000000000000000000000000000000000000000000000000000081526004016115339190612689565b60405180910390fd5b60008060008473ffffffffffffffffffffffffffffffffffffffff1673ffffffffffffffffffffffffffffffffffffffff1681526020019081526020016000206040518060800160405290816000820180546115979061238e565b80601f01602080910402602001604051908101604052809291908181526020018280546115c39061238e565b80156116105780601f106115e557610100808354040283529160200191611610565b820191906000526020600020905b8154815290600101906020018083116115f357829003601f168201915b505050505081526020016001820160009054906101000a900473ffffffffffffffffffffffffffffffffffffffff1673ffffffffffffffffffffffffffffffffffffffff1673ffffffffffffffffffffffffffffffffffffffff1681526020016002820160009054906101000a900473ffffffffffffffffffffffffffffffffffffffff1673ffffffffffffffffffffffffffffffffffffffff1673ffffffffffffffffffffffffffffffffffffffff1681526020016003820180548060200260200160405190810160405280929190818152602001828054801561174a57602002820191906000526020600020905b8160009054906101000a900473ffffffffffffffffffffffffffffffffffffffff1673ffffffffffffffffffffffffffffffffffffffff1681526020019060010190808311611700575b505050505081525050905060018260030160006101000a81548160ff021916908315150217905550806040015173ffffffffffffffffffffffffffffffffffffffff1663a9059cbb3384600101546040518363ffffffff1660e01b81526004016117b59291906126e6565b6020604051808303816000875af11580156117d4573d6000803e3d6000fd5b505050506040513d601f19601f820116820180604052508101906117f8919061273b565b503373ffffffffffffffffffffffffffffffffffffffff167fa932c3f003531abdc442b3f41d4d0b64e7a3a35214a8fddd50f071db23e11aa8836001015460405161184391906121e3565b60405180910390a2505050565b611858611bfb565b6000808373ffffffffffffffffffffffffffffffffffffffff1673ffffffffffffffffffffffffffffffffffffffff1681526020019081526020016000206040518060800160405290816000820180546118b19061238e565b80601f01602080910402602001604051908101604052809291908181526020018280546118dd9061238e565b801561192a5780601f106118ff5761010080835404028352916020019161192a565b820191906000526020600020905b81548152906001019060200180831161190d57829003601f168201915b505050505081526020016001820160009054906101000a900473ffffffffffffffffffffffffffffffffffffffff1673ffffffffffffffffffffffffffffffffffffffff1673ffffffffffffffffffffffffffffffffffffffff1681526020016002820160009054906101000a900473ffffffffffffffffffffffffffffffffffffffff1673ffffffffffffffffffffffffffffffffffffffff1673ffffffffffffffffffffffffffffffffffffffff16815260200160038201805480602002602001604051908101604052809291908181526020018280548015611a6457602002820191906000526020600020905b8160009054906101000a900473ffffffffffffffffffffffffffffffffffffffff1673ffffffffffffffffffffffffffffffffffffffff1681526020019060010190808311611a1a575b5050505050815250509050919050565b6000600360008373ffffffffffffffffffffffffffffffffffffffff1673ffffffffffffffffffffffffffffffffffffffff168152602001908152602001600020549050919050565b6060600260008373ffffffffffffffffffffffffffffffffffffffff1673ffffffffffffffffffffffffffffffffffffffff168152602001908152602001600020805480602002602001604051908101604052809291908181526020018280548015611b7e57602002820191906000526020600020905b8160009054906101000a900473ffffffffffffffffffffffffffffffffffffffff1673ffffffffffffffffffffffffffffffffffffffff1681526020019060010190808311611b34575b50505050509050919050565b611d638061289d83390190565b6040518060c00160405280600081526020016000815260200160008152602001600015158152602001600073ffffffffffffffffffffffffffffffffffffffff168152602001600073ffffffffffffffffffffffffffffffffffffffff1681525090565b604051806080016040528060608152602001600073ffffffffffffffffffffffffffffffffffffffff168152602001600073ffffffffffffffffffffffffffffffffffffffff168152602001606081525090565b600080fd5b600080fd5b600080fd5b600080fd5b600080fd5b60008083601f840112611c7e57611c7d611c59565b5b8235905067ffffffffffffffff811115611c9b57611c9a611c5e565b5b602083019150836001820283011115611cb757611cb6611c63565b5b9250929050565b6000819050919050565b611cd181611cbe565b8114611cdc57600080fd5b50565b600081359050611cee81611cc8565b92915050565b60008060008060008060006080888a031215611d1357611d12611c4f565b5b600088013567ffffffffffffffff811115611d3157611d30611c54565b5b611d3d8a828b01611c68565b9750975050602088013567ffffffffffffffff811115611d6057611d5f611c54565b5b611d6c8a828b01611c68565b9550955050604088013567ffffffffffffffff811115611d8f57611d8e611c54565b5b611d9b8a828b01611c68565b93509350506060611dae8a828b01611cdf565b91505092959891949750929550565b600073ffffffffffffffffffffffffffffffffffffffff82169050919050565b6000611de882611dbd565b9050919050565b611df881611ddd565b8114611e0357600080fd5b50565b600081359050611e1581611def565b92915050565b60008060408385031215611e3257611e31611c4f565b5b6000611e4085828601611e06565b9250506020611e5185828601611e06565b9150509250929050565b611e6481611cbe565b82525050565b60008115159050919050565b611e7f81611e6a565b82525050565b611e8e81611ddd565b82525050565b6000819050919050565b6000611eb9611eb4611eaf84611dbd565b611e94565b611dbd565b9050919050565b6000611ecb82611e9e565b9050919050565b6000611edd82611ec0565b9050919050565b611eed81611ed2565b82525050565b60c082016000820151611f096000850182611e5b565b506020820151611f1c6020850182611e5b565b506040820151611f2f6040850182611e5b565b506060820151611f426060850182611e76565b506080820151611f556080850182611e85565b5060a0820151611f6860a0850182611ee4565b50505050565b600060c082019050611f836000830184611ef3565b92915050565b600080600060608486031215611fa257611fa1611c4f565b5b6000611fb086828701611e06565b9350506020611fc186828701611cdf565b9250506040611fd286828701611cdf565b9150509250925092565b600060208284031215611ff257611ff1611c4f565b5b600061200084828501611e06565b91505092915050565b600081519050919050565b600082825260208201905092915050565b60005b83811015612043578082015181840152602081019050612028565b60008484015250505050565b6000601f19601f8301169050919050565b600061206b82612009565b6120758185612014565b9350612085818560208601612025565b61208e8161204f565b840191505092915050565b600081519050919050565b600082825260208201905092915050565b6000819050602082019050919050565b60006120d18383611e85565b60208301905092915050565b6000602082019050919050565b60006120f582612099565b6120ff81856120a4565b935061210a836120b5565b8060005b8381101561213b57815161212288826120c5565b975061212d836120dd565b92505060018101905061210e565b5085935050505092915050565b600060808301600083015184820360008601526121658282612060565b915050602083015161217a6020860182611e85565b50604083015161218d6040860182611ee4565b50606083015184820360608601526121a582826120ea565b9150508091505092915050565b600060208201905081810360008301526121cc8184612148565b905092915050565b6121dd81611cbe565b82525050565b60006020820190506121f860008301846121d4565b92915050565b600082825260208201905092915050565b600061221a82612099565b61222481856121fe565b935061222f836120b5565b8060005b8381101561226057815161224788826120c5565b9750612252836120dd565b925050600181019050612233565b5085935050505092915050565b60006020820190508181036000830152612287818461220f565b905092915050565b600082825260208201905092915050565b82818337600083830152505050565b60006122bb838561228f565b93506122c88385846122a0565b6122d18361204f565b840190509392505050565b600060608201905081810360008301526122f78187896122af565b9050818103602083015261230c8185876122af565b905061231b60408301846121d4565b9695505050505050565b600082905092915050565b7f4e487b7100000000000000000000000000000000000000000000000000000000600052604160045260246000fd5b7f4e487b7100000000000000000000000000000000000000000000000000000000600052602260045260246000fd5b600060028204905060018216806123a657607f821691505b6020821081036123b9576123b861235f565b5b50919050565b60008190508160005260206000209050919050565b60006020601f8301049050919050565b600082821b905092915050565b6000600883026124217fffffffffffffffffffffffffffffffffffffffffffffffffffffffffffffffff826123e4565b61242b86836123e4565b95508019841693508086168417925050509392505050565b600061245e61245961245484611cbe565b611e94565b611cbe565b9050919050565b6000819050919050565b61247883612443565b61248c61248482612465565b8484546123f1565b825550505050565b600090565b6124a1612494565b6124ac81848461246f565b505050565b5b818110156124d0576124c5600082612499565b6001810190506124b2565b5050565b601f821115612515576124e6816123bf565b6124ef846123d4565b810160208510156124fe578190505b61251261250a856123d4565b8301826124b1565b50505b505050565b600082821c905092915050565b60006125386000198460080261251a565b1980831691505092915050565b60006125518383612527565b9150826002028217905092915050565b61256b8383612325565b67ffffffffffffffff81111561258457612583612330565b5b61258e825461238e565b6125998282856124d4565b6000601f8311600181146125c857600084156125b6578287013590505b6125c08582612545565b865550612628565b601f1984166125d6866123bf565b60005b828110156125fe578489013582556001820191506020850194506020810190506125d9565b8683101561261b5784890135612617601f891682612527565b8355505b6001600288020188555050505b50505050505050565b600081905092915050565b60006126488385612631565b93506126558385846122a0565b82840190509392505050565b600061266e82848661263c565b91508190509392505050565b61268381611ddd565b82525050565b600060208201905061269e600083018461267a565b92915050565b6000815190506126b381611cc8565b92915050565b6000602082840312156126cf576126ce611c4f565b5b60006126dd848285016126a4565b91505092915050565b60006040820190506126fb600083018561267a565b61270860208301846121d4565b9392505050565b61271881611e6a565b811461272357600080fd5b50565b6000815190506127358161270f565b92915050565b60006020828403121561275157612750611c4f565b5b600061275f84828501612726565b91505092915050565b7f4e487b7100000000000000000000000000000000000000000000000000000000600052601160045260246000fd5b60006127a282611cbe565b91506127ad83611cbe565b92508282019050808211156127c5576127c4612768565b5b92915050565b600081546127d88161238e565b6127e28186612631565b945060018216600081146127fd576001811461281257612845565b60ff1983168652811515820286019350612845565b61281b856123bf565b60005b8381101561283d5781548189015260018201915060208101905061281e565b838801955050505b50505092915050565b600061285a82846127cb565b915081905092915050565b600060608201905061287a600083018661267a565b61288760208301856121d4565b61289460408301846121d4565b94935050505056fe608060405234801561001057600080fd5b50604051611d63380380611d63833981810160405281019061003291906106fa565b3383838160039081610044919061099c565b508060049081610054919061099c565b505050600073ffffffffffffffffffffffffffffffffffffffff168173ffffffffffffffffffffffffffffffffffffffff16036100c95760006040517f1e4fbdf70000000000000000000000000000000000000000000000000000000081526004016100c09190610aaf565b60405180910390fd5b6100d8816100f060201b60201c565b506100e8816101b660201b60201c565b505050610b8e565b6000600560009054906101000a900473ffffffffffffffffffffffffffffffffffffffff16905081600560006101000a81548173ffffffffffffffffffffffffffffffffffffffff021916908373ffffffffffffffffffffffffffffffffffffffff1602179055508173ffffffffffffffffffffffffffffffffffffffff168173ffffffffffffffffffffffffffffffffffffffff167f8be0079c531659141344cd1fd0a4f28419497f9722a3daafe3b4186f6b6457e060405160405180910390a35050565b6101c46101d760201b60201c565b6101d4338261027060201b60201c565b50565b6101e56102f860201b60201c565b73ffffffffffffffffffffffffffffffffffffffff1661020961030060201b60201c565b73ffffffffffffffffffffffffffffffffffffffff161461026e576102326102f860201b60201c565b6040517f118cdaa70000000000000000000000000000000000000000000000000000000081526004016102659190610aaf565b60405180910390fd5b565b600073ffffffffffffffffffffffffffffffffffffffff168273ffffffffffffffffffffffffffffffffffffffff16036102e25760006040517fec442f050000000000000000000000000000000000000000000000000000000081526004016102d99190610aaf565b60405180910390fd5b6102f46000838361032a60201b60201c565b5050565b600033905090565b6000600560009054906101000a900473ffffffffffffffffffffffffffffffffffffffff16905090565b600073ffffffffffffffffffffffffffffffffffffffff168373ffffffffffffffffffffffffffffffffffffffff160361037c5780600260008282546103709190610af9565b9250508190555061044f565b60008060008573ffffffffffffffffffffffffffffffffffffffff1673ffffffffffffffffffffffffffffffffffffffff16815260200190815260200160002054905081811015610408578381836040517fe450d38c0000000000000000000000000000000000000000000000000000000081526004016103ff93929190610b3c565b60405180910390fd5b8181036000808673ffffffffffffffffffffffffffffffffffffffff1673ffffffffffffffffffffffffffffffffffffffff16815260200190815260200160002081905550505b600073ffffffffffffffffffffffffffffffffffffffff168273ffffffffffffffffffffffffffffffffffffffff160361049857806002600082825403925050819055506104e5565b806000808473ffffffffffffffffffffffffffffffffffffffff1673ffffffffffffffffffffffffffffffffffffffff168152602001908152602001600020600082825401925050819055505b8173ffffffffffffffffffffffffffffffffffffffff168373ffffffffffffffffffffffffffffffffffffffff167fddf252ad1be2c89b69c2b068fc378daa952ba7f163c4a11628f55a4df523b3ef836040516105429190610b73565b60405180910390a3505050565b6000604051905090565b600080fd5b600080fd5b600080fd5b600080fd5b6000601f19601f8301169050919050565b7f4e487b7100000000000000000000000000000000000000000000000000000000600052604160045260246000fd5b6105b68261056d565b810181811067ffffffffffffffff821117156105d5576105d461057e565b5b80604052505050565b60006105e861054f565b90506105f482826105ad565b919050565b600067ffffffffffffffff8211156106145761061361057e565b5b61061d8261056d565b9050602081019050919050565b60005b8381101561064857808201518184015260208101905061062d565b60008484015250505050565b6000610667610662846105f9565b6105de565b90508281526020810184848401111561068357610682610568565b5b61068e84828561062a565b509392505050565b600082601f8301126106ab576106aa610563565b5b81516106bb848260208601610654565b91505092915050565b6000819050919050565b6106d7816106c4565b81146106e257600080fd5b50565b6000815190506106f4816106ce565b92915050565b60008060006060848603121561071357610712610559565b5b600084015167ffffffffffffffff8111156107315761073061055e565b5b61073d86828701610696565b935050602084015167ffffffffffffffff81111561075e5761075d61055e565b5b61076a86828701610696565b925050604061077b868287016106e5565b9150509250925092565b600081519050919050565b7f4e487b7100000000000000000000000000000000000000000000000000000000600052602260045260246000fd5b600060028204905060018216806107d757607f821691505b6020821081036107ea576107e9610790565b5b50919050565b60008190508160005260206000209050919050565b60006020601f8301049050919050565b600082821b905092915050565b6000600883026108527fffffffffffffffffffffffffffffffffffffffffffffffffffffffffffffffff82610815565b61085c8683610815565b95508019841693508086168417925050509392505050565b6000819050919050565b600061089961089461088f846106c4565b610874565b6106c4565b9050919050565b6000819050919050565b6108b38361087e565b6108c76108bf826108a0565b848454610822565b825550505050565b600090565b6108dc6108cf565b6108e78184846108aa565b505050565b5b8181101561090b576109006000826108d4565b6001810190506108ed565b5050565b601f82111561095057610921816107f0565b61092a84610805565b81016020851015610939578190505b61094d61094585610805565b8301826108ec565b50505b505050565b600082821c905092915050565b600061097360001984600802610955565b1980831691505092915050565b600061098c8383610962565b9150826002028217905092915050565b6109a582610785565b67ffffffffffffffff8111156109be576109bd61057e565b5b6109c882546107bf565b6109d382828561090f565b600060209050601f831160018114610a0657600084156109f4578287015190505b6109fe8582610980565b865550610a66565b601f198416610a14866107f0565b60005b82811015610a3c57848901518255600182019150602085019450602081019050610a17565b86831015610a595784890151610a55601f891682610962565b8355505b6001600288020188555050505b505050505050565b600073ffffffffffffffffffffffffffffffffffffffff82169050919050565b6000610a9982610a6e565b9050919050565b610aa981610a8e565b82525050565b6000602082019050610ac46000830184610aa0565b92915050565b7f4e487b7100000000000000000000000000000000000000000000000000000000600052601160045260246000fd5b6000610b04826106c4565b9150610b0f836106c4565b9250828201905080821115610b2757610b26610aca565b5b92915050565b610b36816106c4565b82525050565b6000606082019050610b516000830186610aa0565b610b5e6020830185610b2d565b610b6b6040830184610b2d565b949350505050565b6000602082019050610b886000830184610b2d565b92915050565b6111c680610b9d6000396000f3fe608060405234801561001057600080fd5b50600436106100cf5760003560e01c8063715018a61161008c578063a0712d6811610066578063a0712d6814610204578063a9059cbb14610220578063dd62ed3e14610250578063f2fde38b14610280576100cf565b8063715018a6146101be5780638da5cb5b146101c857806395d89b41146101e6576100cf565b806306fdde03146100d4578063095ea7b3146100f257806318160ddd1461012257806323b872dd14610140578063313ce5671461017057806370a082311461018e575b600080fd5b6100dc61029c565b6040516100e99190610ded565b60405180910390f35b61010c60048036038101906101079190610ea8565b61032e565b6040516101199190610f03565b60405180910390f35b61012a610351565b6040516101379190610f2d565b60405180910390f35b61015a60048036038101906101559190610f48565b61035b565b6040516101679190610f03565b60405180910390f35b61017861038a565b6040516101859190610fb7565b60405180910390f35b6101a860048036038101906101a39190610fd2565b610393565b6040516101b59190610f2d565b60405180910390f35b6101c66103db565b005b6101d06103ef565b6040516101dd919061100e565b60405180910390f35b6101ee610419565b6040516101fb9190610ded565b60405180910390f35b61021e60048036038101906102199190611029565b6104ab565b005b61023a60048036038101906102359190610ea8565b6104c0565b6040516102479190610f03565b60405180910390f35b61026a60048036038101906102659190611056565b6104e3565b6040516102779190610f2d565b60405180910390f35b61029a60048036038101906102959190610fd2565b61056a565b005b6060600380546102ab906110c5565b80601f01602080910402602001604051908101604052809291908181526020018280546102d7906110c5565b80156103245780601f106102f957610100808354040283529160200191610324565b820191906000526020600020905b81548152906001019060200180831161030757829003601f168201915b5050505050905090565b6000806103396105f0565b90506103468185856105f8565b600191505092915050565b6000600254905090565b6000806103666105f0565b905061037385828561060a565b61037e85858561069e565b60019150509392505050565b60006012905090565b60008060008373ffffffffffffffffffffffffffffffffffffffff1673ffffffffffffffffffffffffffffffffffffffff168152602001908152602001600020549050919050565b6103e3610792565b6103ed6000610819565b565b6000600560009054906101000a900473ffffffffffffffffffffffffffffffffffffffff16905090565b606060048054610428906110c5565b80601f0160208091040260200160405190810160405280929190818152602001828054610454906110c5565b80156104a15780601f10610476576101008083540402835291602001916104a1565b820191906000526020600020905b81548152906001019060200180831161048457829003601f168201915b5050505050905090565b6104b3610792565b6104bd33826108df565b50565b6000806104cb6105f0565b90506104d881858561069e565b600191505092915050565b6000600160008473ffffffffffffffffffffffffffffffffffffffff1673ffffffffffffffffffffffffffffffffffffffff16815260200190815260200160002060008373ffffffffffffffffffffffffffffffffffffffff1673ffffffffffffffffffffffffffffffffffffffff16815260200190815260200160002054905092915050565b610572610792565b600073ffffffffffffffffffffffffffffffffffffffff168173ffffffffffffffffffffffffffffffffffffffff16036105e45760006040517f1e4fbdf70000000000000000000000000000000000000000000000000000000081526004016105db919061100e565b60405180910390fd5b6105ed81610819565b50565b600033905090565b6106058383836001610961565b505050565b600061061684846104e3565b90507fffffffffffffffffffffffffffffffffffffffffffffffffffffffffffffffff81146106985781811015610688578281836040517ffb8f41b200000000000000000000000000000000000000000000000000000000815260040161067f939291906110f6565b60405180910390fd5b61069784848484036000610961565b5b50505050565b600073ffffffffffffffffffffffffffffffffffffffff168373ffffffffffffffffffffffffffffffffffffffff16036107105760006040517f96c6fd1e000000000000000000000000000000000000000000000000000000008152600401610707919061100e565b60405180910390fd5b600073ffffffffffffffffffffffffffffffffffffffff168273ffffffffffffffffffffffffffffffffffffffff16036107825760006040517fec442f05000000000000000000000000000000000000000000000000000000008152600401610779919061100e565b60405180910390fd5b61078d838383610b38565b505050565b61079a6105f0565b73ffffffffffffffffffffffffffffffffffffffff166107b86103ef565b73ffffffffffffffffffffffffffffffffffffffff1614610817576107db6105f0565b6040517f118cdaa700000000000000000000000000000000000000000000000000000000815260040161080e919061100e565b60405180910390fd5b565b6000600560009054906101000a900473ffffffffffffffffffffffffffffffffffffffff16905081600560006101000a81548173ffffffffffffffffffffffffffffffffffffffff021916908373ffffffffffffffffffffffffffffffffffffffff1602179055508173ffffffffffffffffffffffffffffffffffffffff168173ffffffffffffffffffffffffffffffffffffffff167f8be0079c531659141344cd1fd0a4f28419497f9722a3daafe3b4186f6b6457e060405160405180910390a35050565b600073ffffffffffffffffffffffffffffffffffffffff168273ffffffffffffffffffffffffffffffffffffffff16036109515760006040517fec442f05000000000000000000000000000000000000000000000000000000008152600401610948919061100e565b60405180910390fd5b61095d60008383610b38565b5050565b600073ffffffffffffffffffffffffffffffffffffffff168473ffffffffffffffffffffffffffffffffffffffff16036109d35760006040517fe602df050000000000000000000000000000000000000000000000000000000081526004016109ca919061100e565b60405180910390fd5b600073ffffffffffffffffffffffffffffffffffffffff168373ffffffffffffffffffffffffffffffffffffffff1603610a455760006040517f94280d62000000000000000000000000000000000000000000000000000000008152600401610a3c919061100e565b60405180910390fd5b81600160008673ffffffffffffffffffffffffffffffffffffffff1673ffffffffffffffffffffffffffffffffffffffff16815260200190815260200160002060008573ffffffffffffffffffffffffffffffffffffffff1673ffffffffffffffffffffffffffffffffffffffff168152602001908152602001600020819055508015610b32578273ffffffffffffffffffffffffffffffffffffffff168473ffffffffffffffffffffffffffffffffffffffff167f8c5be1e5ebec7d5bd14f71427d1e84f3dd0314c0f7b2291e5b200ac8c7c3b92584604051610b299190610f2d565b60405180910390a35b50505050565b600073ffffffffffffffffffffffffffffffffffffffff168373ffffffffffffffffffffffffffffffffffffffff1603610b8a578060026000828254610b7e919061115c565b92505081905550610c5d565b60008060008573ffffffffffffffffffffffffffffffffffffffff1673ffffffffffffffffffffffffffffffffffffffff16815260200190815260200160002054905081811015610c16578381836040517fe450d38c000000000000000000000000000000000000000000000000000000008152600401610c0d939291906110f6565b60405180910390fd5b8181036000808673ffffffffffffffffffffffffffffffffffffffff1673ffffffffffffffffffffffffffffffffffffffff16815260200190815260200160002081905550505b600073ffffffffffffffffffffffffffffffffffffffff168273ffffffffffffffffffffffffffffffffffffffff1603610ca65780600260008282540392505081905550610cf3565b806000808473ffffffffffffffffffffffffffffffffffffffff1673ffffffffffffffffffffffffffffffffffffffff168152602001908152602001600020600082825401925050819055505b8173ffffffffffffffffffffffffffffffffffffffff168373ffffffffffffffffffffffffffffffffffffffff167fddf252ad1be2c89b69c2b068fc378daa952ba7f163c4a11628f55a4df523b3ef83604051610d509190610f2d565b60405180910390a3505050565b600081519050919050565b600082825260208201905092915050565b60005b83811015610d97578082015181840152602081019050610d7c565b60008484015250505050565b6000601f19601f8301169050919050565b6000610dbf82610d5d565b610dc98185610d68565b9350610dd9818560208601610d79565b610de281610da3565b840191505092915050565b60006020820190508181036000830152610e078184610db4565b905092915050565b600080fd5b600073ffffffffffffffffffffffffffffffffffffffff82169050919050565b6000610e3f82610e14565b9050919050565b610e4f81610e34565b8114610e5a57600080fd5b50565b600081359050610e6c81610e46565b92915050565b6000819050919050565b610e8581610e72565b8114610e9057600080fd5b50565b600081359050610ea281610e7c565b92915050565b60008060408385031215610ebf57610ebe610e0f565b5b6000610ecd85828601610e5d565b9250506020610ede85828601610e93565b9150509250929050565b60008115159050919050565b610efd81610ee8565b82525050565b6000602082019050610f186000830184610ef4565b92915050565b610f2781610e72565b82525050565b6000602082019050610f426000830184610f1e565b92915050565b600080600060608486031215610f6157610f60610e0f565b5b6000610f6f86828701610e5d565b9350506020610f8086828701610e5d565b9250506040610f9186828701610e93565b9150509250925092565b600060ff82169050919050565b610fb181610f9b565b82525050565b6000602082019050610fcc6000830184610fa8565b92915050565b600060208284031215610fe857610fe7610e0f565b5b6000610ff684828501610e5d565b91505092915050565b61100881610e34565b82525050565b60006020820190506110236000830184610fff565b92915050565b60006020828403121561103f5761103e610e0f565b5b600061104d84828501610e93565b91505092915050565b6000806040838503121561106d5761106c610e0f565b5b600061107b85828601610e5d565b925050602061108c85828601610e5d565b9150509250929050565b7f4e487b7100000000000000000000000000000000000000000000000000000000600052602260045260246000fd5b600060028204905060018216806110dd57607f821691505b6020821081036110f0576110ef611096565b5b50919050565b600060608201905061110b6000830186610fff565b6111186020830185610f1e565b6111256040830184610f1e565b949350505050565b7f4e487b7100000000000000000000000000000000000000000000000000000000600052601160045260246000fd5b600061116782610e72565b915061117283610e72565b925082820190508082111561118a5761118961112d565b5b9291505056fea264697066735822122022750cc7969bba27f960e887a4dd77e98c6495253c1ff2dd72424f9b2c0c798364736f6c634300081a0033a2646970667358221220fa60d31effe77f4206ba767fdb3ff4736276c5ba77d2fa2ddc250503c13f3fff64736f6c634300081a0033",
        "linkReferences": {}
    },
    "methodIdentifiers": {
        "WithdrawUnVestedTokens()": "279eda16",
        "addStakeholder(address,uint256,uint256)": "4beab898",
        "claimVestedTokens(address)": "98f3b12d",
        "getOrganization(address)": "d2c30a6d",
        "getOrganizationsForStakeholder(address)": "dddca3de",
        "getStakeholder(address,address)": "0e916501",
        "getTotalVestedAmount(address)": "d3715c76",
        "register(string,string,string,uint256)": "02110d25"
    },
    "id": 33
}