{
    "abi": [
        {
            "type": "function",
            "name": "WithdrawUnVestedTokens",
            "inputs": [],
            "outputs": [],
            "stateMutability": "nonpayable"
        },
        {
            "type": "function",
            "name": "addStakeholder",
            "inputs": [
                {
                    "name": "_stakeHolder",
                    "type": "address",
                    "internalType": "address"
                },
                {
                    "name": "_amount",
                    "type": "uint256",
                    "internalType": "uint256"
                },
                {
                    "name": "_vestingPeriod",
                    "type": "uint256",
                    "internalType": "uint256"
                }
            ],
            "outputs": [],
            "stateMutability": "nonpayable"
        },
        {
            "type": "function",
            "name": "claimVestedTokens",
            "inputs": [
                {
                    "name": "organizationOwnerAddress",
                    "type": "address",
                    "internalType": "address"
                }
            ],
            "outputs": [],
            "stateMutability": "nonpayable"
        },
        {
            "type": "function",
            "name": "getOrganization",
            "inputs": [
                {
                    "name": "owner",
                    "type": "address",
                    "internalType": "address"
                }
            ],
            "outputs": [
                {
                    "name": "",
                    "type": "tuple",
                    "internalType": "struct Vesting.Organization",
                    "components": [
                        {
                            "name": "organizationName",
                            "type": "string",
                            "internalType": "string"
                        },
                        {
                            "name": "owner",
                            "type": "address",
                            "internalType": "address"
                        },
                        {
                            "name": "token",
                            "type": "address",
                            "internalType": "contract Token"
                        },
                        {
                            "name": "stakeholders",
                            "type": "address[]",
                            "internalType": "address[]"
                        }
                    ]
                }
            ],
            "stateMutability": "view"
        },
        {
            "type": "function",
            "name": "getOrganizationsForStakeholder",
            "inputs": [
                {
                    "name": "stakeHolder",
                    "type": "address",
                    "internalType": "address"
                }
            ],
            "outputs": [
                {
                    "name": "",
                    "type": "address[]",
                    "internalType": "address[]"
                }
            ],
            "stateMutability": "view"
        },
        {
            "type": "function",
            "name": "getStakeholder",
            "inputs": [
                {
                    "name": "organizationOWner",
                    "type": "address",
                    "internalType": "address"
                },
                {
                    "name": "stakeHolder",
                    "type": "address",
                    "internalType": "address"
                }
            ],
            "outputs": [
                {
                    "name": "",
                    "type": "tuple",
                    "internalType": "struct Vesting.StakeHolder",
                    "components": [
                        {
                            "name": "vestingPeriod",
                            "type": "uint256",
                            "internalType": "uint256"
                        },
                        {
                            "name": "amount",
                            "type": "uint256",
                            "internalType": "uint256"
                        },
                        {
                            "name": "startTime",
                            "type": "uint256",
                            "internalType": "uint256"
                        },
                        {
                            "name": "claimed",
                            "type": "bool",
                            "internalType": "bool"
                        },
                        {
                            "name": "stakeholder",
                            "type": "address",
                            "internalType": "address"
                        },
                        {
                            "name": "organizationTokenAddress",
                            "type": "address",
                            "internalType": "contract Token"
                        }
                    ]
                }
            ],
            "stateMutability": "view"
        },
        {
            "type": "function",
            "name": "getTotalVestedAmount",
            "inputs": [
                {
                    "name": "organizationOwnerAddress",
                    "type": "address",
                    "internalType": "address"
                }
            ],
            "outputs": [
                {
                    "name": "",
                    "type": "uint256",
                    "internalType": "uint256"
                }
            ],
            "stateMutability": "view"
        },
        {
            "type": "function",
            "name": "register",
            "inputs": [
                {
                    "name": "_organizationName",
                    "type": "string",
                    "internalType": "string"
                },
                {
                    "name": "tokenName",
                    "type": "string",
                    "internalType": "string"
                },
                {
                    "name": "tokenSymbol",
                    "type": "string",
                    "internalType": "string"
                },
                {
                    "name": "intialSupply",
                    "type": "uint256",
                    "internalType": "uint256"
                }
            ],
            "outputs": [],
            "stateMutability": "nonpayable"
        },
        {
            "type": "event",
            "name": "OrganizationRegistered",
            "inputs": [
                {
                    "name": "organizationName",
                    "type": "string",
                    "indexed": true,
                    "internalType": "string"
                },
                {
                    "name": "owner",
                    "type": "address",
                    "indexed": false,
                    "internalType": "address"
                }
            ],
            "anonymous": false
        },
        {
            "type": "event",
            "name": "StakeHolderAdded",
            "inputs": [
                {
                    "name": "organizationName",
                    "type": "string",
                    "indexed": true,
                    "internalType": "string"
                },
                {
                    "name": "stakeHolder",
                    "type": "address",
                    "indexed": false,
                    "internalType": "address"
                },
                {
                    "name": "vestingPeriod",
                    "type": "uint256",
                    "indexed": false,
                    "internalType": "uint256"
                },
                {
                    "name": "amount",
                    "type": "uint256",
                    "indexed": false,
                    "internalType": "uint256"
                }
            ],
            "anonymous": false
        },
        {
            "type": "event",
            "name": "VestedTokenClaimed",
            "inputs": [
                {
                    "name": "stakeholder",
                    "type": "address",
                    "indexed": true,
                    "internalType": "address"
                },
                {
                    "name": "amount",
                    "type": "uint256",
                    "indexed": false,
                    "internalType": "uint256"
                }
            ],
            "anonymous": false
        },
        {
            "type": "error",
            "name": "Vesting__CallerIsNotOrganizationOwner",
            "inputs": [
                {
                    "name": "callerAddress",
                    "type": "address",
                    "internalType": "address"
                }
            ]
        },
        {
            "type": "error",
            "name": "Vesting__CallerIsNotStakeholder",
            "inputs": [
                {
                    "name": "callerAddress",
                    "type": "address",
                    "internalType": "address"
                }
            ]
        },
        {
            "type": "error",
            "name": "Vesting__InitialTokenSupplyIsLow",
            "inputs": []
        },
        {
            "type": "error",
            "name": "Vesting__InsufficientTokenBalanceToVest",
            "inputs": []
        },
        {
            "type": "error",
            "name": "Vesting__InsufficientUnVestedTokens",
            "inputs": []
        },
        {
            "type": "error",
            "name": "Vesting__InvalidStakeHolderAddress",
            "inputs": []
        },
        {
            "type": "error",
            "name": "Vesting__OnlyOrganizationOwner",
            "inputs": [
                {
                    "name": "callerAddress",
                    "type": "address",
                    "internalType": "address"
                }
            ]
        },
        {
            "type": "error",
            "name": "Vesting__OrganizationDoesNotExits",
            "inputs": []
        },
        {
            "type": "error",
            "name": "Vesting__OrganizationExits",
            "inputs": []
        },
        {
            "type": "error",
            "name": "Vesting__StakeholderAlreadyAdded",
            "inputs": []
        },
        {
            "type": "error",
            "name": "Vesting__VestPeriodNotOver",
            "inputs": []
        },
        {
            "type": "error",
            "name": "Vesting__VestedTokensAlreadyClaimed",
            "inputs": []
        },
        {
            "type": "error",
            "name": "Vesting__VestingAmountLessThanZero",
            "inputs": []
        },
        {
            "type": "error",
            "name": "Vesting__VestingPeriodLessThanZero",
            "inputs": [
                {
                    "name": "period",
                    "type": "uint256",
                    "internalType": "uint256"
                }
            ]
        }
    ],
    "bytecode": {
        "object": "0x6080604052348015600f57600080fd5b5061246d8061001f6000396000f3fe608060405234801561001057600080fd5b50600436106100885760003560e01c806398f3b12d1161005b57806398f3b12d14610131578063d2c30a6d14610144578063d3715c7614610164578063dddca3de1461019b57600080fd5b806302110d251461008d5780630e916501146100a2578063279eda16146101165780634beab8981461011e575b600080fd5b6100a061009b3660046110d9565b6101bb565b005b6100b56100b03660046111a4565b610309565b60405161010d91908151815260208083015190820152604080830151908201526060808301511515908201526080808301516001600160a01b039081169183019190915260a092830151169181019190915260c00190565b60405180910390f35b6100a06103b7565b6100a061012c3660046111d7565b6106b2565b6100a061013f36600461120a565b610b97565b61015761015236600461120a565b610e8a565b60405161010d9190611271565b61018d61017236600461120a565b6001600160a01b031660009081526003602052604090205490565b60405190815260200161010d565b6101ae6101a936600461120a565b61100d565b60405161010d9190611315565b336000908152602081905260409020600101546001600160a01b0316156101f55760405163a4e8ae6960e01b815260040160405180910390fd5b6000811161021657604051630d346eb360e21b815260040160405180910390fd5b6000858585858560405161022990611083565b61023795949392919061138a565b604051809103906000f080158015610253573d6000803e3d6000fd5b50336000908152602081905260409020909150610271888a83611463565b50336000818152602081815260408083206001810180546001600160a01b0319908116909617905560020180549094166001600160a01b038616179093556003905281812055516102c59089908990611523565b604051908190038120338252907ff8ec6500e5c7bea961998f7c5b87721252c58c15c3537dc259bc55d79c70f1b69060200160405180910390a25050505050505050565b6040805160c081018252600080825260208201819052918101829052606081018290526080810182905260a0810191909152506001600160a01b0380831660009081526001602081815260408084208686168552825292839020835160c081018552815481529281015491830191909152600281015492820192909252600382015460ff81161515606083015261010090048316608082015260049091015490911660a08201525b92915050565b336000908152602081905260408082208151608081019092528054829082906103df906113da565b80601f016020809104026020016040519081016040528092919081815260200182805461040b906113da565b80156104585780601f1061042d57610100808354040283529160200191610458565b820191906000526020600020905b81548152906001019060200180831161043b57829003601f168201915b505050918352505060018201546001600160a01b03908116602080840191909152600284015490911660408084019190915260038401805482518185028101850190935280835260609094019391929091908301828280156104e357602002820191906000526020600020905b81546001600160a01b031681526001909101906020018083116104c5575b5050505050815250509050336001600160a01b031681602001516001600160a01b03161461052b5760405163448612bd60e11b81523360048201526024015b60405180910390fd5b3360009081526003602052604090819020548282015191516370a0823160e01b815230600482015290916001600160a01b0316906370a0823190602401602060405180830381865afa158015610585573d6000803e3d6000fd5b505050506040513d601f19601f820116820180604052508101906105a99190611533565b116105c75760405163f93f045560e01b815260040160405180910390fd5b60408181015190516370a0823160e01b81523060048201526001600160a01b039091169063a9059cbb90339083906370a0823190602401602060405180830381865afa15801561061b573d6000803e3d6000fd5b505050506040513d601f19601f8201168201806040525081019061063f9190611533565b6040516001600160e01b031960e085901b1681526001600160a01b03909216600483015260248201526044016020604051808303816000875af115801561068a573d6000803e3d6000fd5b505050506040513d601f19601f820116820180604052508101906106ae919061154c565b5050565b6001600160a01b0383166106d957604051634a64eb3960e01b815260040160405180910390fd5b600081116106fd576040516370ebeb5760e11b815260048101829052602401610522565b6000821161071e5760405163757a5ba560e01b815260040160405180910390fd5b33600090815260036020526040902054610739908390611584565b33600090815260208190526040908190206002015490516370a0823160e01b81523060048201526001600160a01b03909116906370a0823190602401602060405180830381865afa158015610792573d6000803e3d6000fd5b505050506040513d601f19601f820116820180604052508101906107b69190611533565b10156107d5576040516316930f1d60e11b815260040160405180910390fd5b336000908152602081905260409020600101546001600160a01b031661080e5760405163189f8d6b60e31b815260040160405180910390fd5b336000818152602081905260409020600101546001600160a01b03161461084a5760405163943ee2bf60e01b8152336004820152602401610522565b336000908152602081815260408083206001908101546001600160a01b0390811680865291845282852088821680875294529190932060030154610100900416036108a8576040516308c98e2f60e31b815260040160405180910390fd5b6000806000336001600160a01b03166001600160a01b0316815260200190815260200160002060020160009054906101000a90046001600160a01b03169050600080336001600160a01b03166001600160a01b03168152602001908152602001600020600301859080600181540180825580915050600190039060005260206000200160009091909190916101000a8154816001600160a01b0302191690836001600160a01b031602179055506040518060c00160405280848152602001858152602001428152602001600015158152602001866001600160a01b03168152602001826001600160a01b031681525060016000846001600160a01b03166001600160a01b031681526020019081526020016000206000876001600160a01b03166001600160a01b0316815260200190815260200160002060008201518160000155602082015181600101556040820151816002015560608201518160030160006101000a81548160ff02191690831515021790555060808201518160030160016101000a8154816001600160a01b0302191690836001600160a01b0316021790555060a08201518160040160006101000a8154816001600160a01b0302191690836001600160a01b0316021790555090505060026000866001600160a01b03166001600160a01b03168152602001908152602001600020829080600181540180825580915050600190039060005260206000200160009091909190916101000a8154816001600160a01b0302191690836001600160a01b031602179055508360036000336001600160a01b03166001600160a01b0316815260200190815260200160002054610b179190611584565b336000908152600360209081526040808320939093558190528190209051610b3f9190611597565b604080519182900382206001600160a01b038816835260208301869052908201869052907f71aada5ecfe27eeb24372cfd00de9697432f41b3e84b42576b774ebf2b925b569060600160405180910390a25050505050565b6001600160a01b03811660009081526001602090815260408083203384529091529020600381015460ff1615610be057604051630fbfc05560e01b815260040160405180910390fd5b60028101548154610bf19190611584565b421015610c1157604051633e01216d60e01b815260040160405180910390fd5b600381015461010090046001600160a01b03163314610c45576040516311d1a8ab60e21b8152336004820152602401610522565b60018101546001600160a01b038316600090815260036020526040902054610c6d919061160c565b6001600160a01b038316600090815260036020908152604080832093909355819052818120825160808101909352805491929182908290610cad906113da565b80601f0160208091040260200160405190810160405280929190818152602001828054610cd9906113da565b8015610d265780601f10610cfb57610100808354040283529160200191610d26565b820191906000526020600020905b815481529060010190602001808311610d0957829003601f168201915b505050918352505060018201546001600160a01b0390811660208084019190915260028401549091166040808401919091526003840180548251818502810185019093528083526060909401939192909190830182828015610db157602002820191906000526020600020905b81546001600160a01b03168152600190910190602001808311610d93575b5050509190925250505060038301805460ff1916600190811790915560408281015191850154905163a9059cbb60e01b815233600482015260248101919091529192506001600160a01b03169063a9059cbb906044016020604051808303816000875af1158015610e26573d6000803e3d6000fd5b505050506040513d601f19601f82011682018060405250810190610e4a919061154c565b50600182015460405190815233907fa932c3f003531abdc442b3f41d4d0b64e7a3a35214a8fddd50f071db23e11aa89060200160405180910390a2505050565b610ec760405180608001604052806060815260200160006001600160a01b0316815260200160006001600160a01b03168152602001606081525090565b6001600160a01b03821660009081526020819052604090819020815160808101909252805482908290610ef9906113da565b80601f0160208091040260200160405190810160405280929190818152602001828054610f25906113da565b8015610f725780601f10610f4757610100808354040283529160200191610f72565b820191906000526020600020905b815481529060010190602001808311610f5557829003601f168201915b505050918352505060018201546001600160a01b0390811660208084019190915260028401549091166040808401919091526003840180548251818502810185019093528083526060909401939192909190830182828015610ffd57602002820191906000526020600020905b81546001600160a01b03168152600190910190602001808311610fdf575b5050505050815250509050919050565b6001600160a01b03811660009081526002602090815260409182902080548351818402810184019094528084526060939283018282801561107757602002820191906000526020600020905b81546001600160a01b03168152600190910190602001808311611059575b50505050509050919050565b610e188061162083390190565b60008083601f8401126110a257600080fd5b50813567ffffffffffffffff8111156110ba57600080fd5b6020830191508360208285010111156110d257600080fd5b9250929050565b60008060008060008060006080888a0312156110f457600080fd5b873567ffffffffffffffff81111561110b57600080fd5b6111178a828b01611090565b909850965050602088013567ffffffffffffffff81111561113757600080fd5b6111438a828b01611090565b909650945050604088013567ffffffffffffffff81111561116357600080fd5b61116f8a828b01611090565b989b979a50959894979596606090950135949350505050565b80356001600160a01b038116811461119f57600080fd5b919050565b600080604083850312156111b757600080fd5b6111c083611188565b91506111ce60208401611188565b90509250929050565b6000806000606084860312156111ec57600080fd5b6111f584611188565b95602085013595506040909401359392505050565b60006020828403121561121c57600080fd5b61122582611188565b9392505050565b600081518084526020840193506020830160005b828110156112675781516001600160a01b0316865260209586019590910190600101611240565b5093949350505050565b60208152600082516080602084015280518060a085015260005b818110156112a857602081840181015160c087840101520161128b565b50600084820160c001526020850151601f909101601f1916840191506112d960408501826001600160a01b03169052565b5060408401516001600160a01b038116606085015250606084015160a084830301608085015261130c60c083018261122c565b95945050505050565b602080825282518282018190526000918401906040840190835b818110156113565783516001600160a01b031683526020938401939092019160010161132f565b509095945050505050565b81835281816020850137506000828201602090810191909152601f909101601f19169091010190565b60608152600061139e606083018789611361565b82810360208401526113b1818688611361565b9150508260408301529695505050505050565b634e487b7160e01b600052604160045260246000fd5b600181811c908216806113ee57607f821691505b60208210810361140e57634e487b7160e01b600052602260045260246000fd5b50919050565b601f82111561145e57806000526020600020601f840160051c8101602085101561143b5750805b601f840160051c820191505b8181101561145b5760008155600101611447565b50505b505050565b67ffffffffffffffff83111561147b5761147b6113c4565b61148f8361148983546113da565b83611414565b6000601f8411600181146114c357600085156114ab5750838201355b600019600387901b1c1916600186901b17835561145b565b600083815260209020601f19861690835b828110156114f457868501358255602094850194600190920191016114d4565b50868210156115115760001960f88860031b161c19848701351681555b505060018560011b0183555050505050565b8183823760009101908152919050565b60006020828403121561154557600080fd5b5051919050565b60006020828403121561155e57600080fd5b8151801515811461122557600080fd5b634e487b7160e01b600052601160045260246000fd5b808201808211156103b1576103b161156e565b60008083546115a5816113da565b6001821680156115bc57600181146115d157611601565b60ff1983168652811515820286019350611601565b86600052602060002060005b838110156115f9578154888201526001909101906020016115dd565b505081860193505b509195945050505050565b818103818111156103b1576103b161156e56fe608060405234801561001057600080fd5b50604051610e18380380610e1883398101604081905261002f9161034b565b338383600361003e8382610446565b50600461004b8282610446565b5050506001600160a01b03811661007d57604051631e4fbdf760e01b8152600060048201526024015b60405180910390fd5b61008681610098565b50610090816100ea565b50505061052b565b600580546001600160a01b038381166001600160a01b0319831681179093556040519116919082907f8be0079c531659141344cd1fd0a4f28419497f9722a3daafe3b4186f6b6457e090600090a35050565b6100f26100ff565b6100fc338261012e565b50565b6005546001600160a01b0316331461012c5760405163118cdaa760e01b8152336004820152602401610074565b565b6001600160a01b0382166101585760405163ec442f0560e01b815260006004820152602401610074565b61016460008383610168565b5050565b6001600160a01b0383166101935780600260008282546101889190610504565b909155506102059050565b6001600160a01b038316600090815260208190526040902054818110156101e65760405163391434e360e21b81526001600160a01b03851660048201526024810182905260448101839052606401610074565b6001600160a01b03841660009081526020819052604090209082900390555b6001600160a01b03821661022157600280548290039055610240565b6001600160a01b03821660009081526020819052604090208054820190555b816001600160a01b0316836001600160a01b03167fddf252ad1be2c89b69c2b068fc378daa952ba7f163c4a11628f55a4df523b3ef8360405161028591815260200190565b60405180910390a3505050565b634e487b7160e01b600052604160045260246000fd5b600082601f8301126102b957600080fd5b81516001600160401b038111156102d2576102d2610292565b604051601f8201601f19908116603f011681016001600160401b038111828210171561030057610300610292565b60405281815283820160200185101561031857600080fd5b60005b828110156103375760208186018101518383018201520161031b565b506000918101602001919091529392505050565b60008060006060848603121561036057600080fd5b83516001600160401b0381111561037657600080fd5b610382868287016102a8565b602086015190945090506001600160401b038111156103a057600080fd5b6103ac868287016102a8565b925050604084015190509250925092565b600181811c908216806103d157607f821691505b6020821081036103f157634e487b7160e01b600052602260045260246000fd5b50919050565b601f82111561044157806000526020600020601f840160051c8101602085101561041e5750805b601f840160051c820191505b8181101561043e576000815560010161042a565b50505b505050565b81516001600160401b0381111561045f5761045f610292565b6104738161046d84546103bd565b846103f7565b6020601f8211600181146104a7576000831561048f5750848201515b600019600385901b1c1916600184901b17845561043e565b600084815260208120601f198516915b828110156104d757878501518255602094850194600190920191016104b7565b50848210156104f55786840151600019600387901b60f8161c191681555b50505050600190811b01905550565b8082018082111561052557634e487b7160e01b600052601160045260246000fd5b92915050565b6108de8061053a6000396000f3fe608060405234801561001057600080fd5b50600436106100cf5760003560e01c8063715018a61161008c578063a0712d6811610066578063a0712d681461019f578063a9059cbb146101b2578063dd62ed3e146101c5578063f2fde38b146101fe57600080fd5b8063715018a6146101725780638da5cb5b1461017c57806395d89b411461019757600080fd5b806306fdde03146100d4578063095ea7b3146100f257806318160ddd1461011557806323b872dd14610127578063313ce5671461013a57806370a0823114610149575b600080fd5b6100dc610211565b6040516100e9919061070e565b60405180910390f35b610105610100366004610778565b6102a3565b60405190151581526020016100e9565b6002545b6040519081526020016100e9565b6101056101353660046107a2565b6102bd565b604051601281526020016100e9565b6101196101573660046107df565b6001600160a01b031660009081526020819052604090205490565b61017a6102e1565b005b6005546040516001600160a01b0390911681526020016100e9565b6100dc6102f5565b61017a6101ad366004610801565b610304565b6101056101c0366004610778565b610319565b6101196101d336600461081a565b6001600160a01b03918216600090815260016020908152604080832093909416825291909152205490565b61017a61020c3660046107df565b610327565b6060600380546102209061084d565b80601f016020809104026020016040519081016040528092919081815260200182805461024c9061084d565b80156102995780601f1061026e57610100808354040283529160200191610299565b820191906000526020600020905b81548152906001019060200180831161027c57829003601f168201915b5050505050905090565b6000336102b1818585610367565b60019150505b92915050565b6000336102cb858285610379565b6102d68585856103f7565b506001949350505050565b6102e9610456565b6102f36000610483565b565b6060600480546102209061084d565b61030c610456565b61031633826104d5565b50565b6000336102b18185856103f7565b61032f610456565b6001600160a01b03811661035e57604051631e4fbdf760e01b8152600060048201526024015b60405180910390fd5b61031681610483565b610374838383600161050f565b505050565b6001600160a01b0383811660009081526001602090815260408083209386168352929052205460001981146103f157818110156103e257604051637dc7a0d960e11b81526001600160a01b03841660048201526024810182905260448101839052606401610355565b6103f18484848403600061050f565b50505050565b6001600160a01b03831661042157604051634b637e8f60e11b815260006004820152602401610355565b6001600160a01b03821661044b5760405163ec442f0560e01b815260006004820152602401610355565b6103748383836105e4565b6005546001600160a01b031633146102f35760405163118cdaa760e01b8152336004820152602401610355565b600580546001600160a01b038381166001600160a01b0319831681179093556040519116919082907f8be0079c531659141344cd1fd0a4f28419497f9722a3daafe3b4186f6b6457e090600090a35050565b6001600160a01b0382166104ff5760405163ec442f0560e01b815260006004820152602401610355565b61050b600083836105e4565b5050565b6001600160a01b0384166105395760405163e602df0560e01b815260006004820152602401610355565b6001600160a01b03831661056357604051634a1406b160e11b815260006004820152602401610355565b6001600160a01b03808516600090815260016020908152604080832093871683529290522082905580156103f157826001600160a01b0316846001600160a01b03167f8c5be1e5ebec7d5bd14f71427d1e84f3dd0314c0f7b2291e5b200ac8c7c3b925846040516105d691815260200190565b60405180910390a350505050565b6001600160a01b03831661060f5780600260008282546106049190610887565b909155506106819050565b6001600160a01b038316600090815260208190526040902054818110156106625760405163391434e360e21b81526001600160a01b03851660048201526024810182905260448101839052606401610355565b6001600160a01b03841660009081526020819052604090209082900390555b6001600160a01b03821661069d576002805482900390556106bc565b6001600160a01b03821660009081526020819052604090208054820190555b816001600160a01b0316836001600160a01b03167fddf252ad1be2c89b69c2b068fc378daa952ba7f163c4a11628f55a4df523b3ef8360405161070191815260200190565b60405180910390a3505050565b602081526000825180602084015260005b8181101561073c576020818601810151604086840101520161071f565b506000604082850101526040601f19601f83011684010191505092915050565b80356001600160a01b038116811461077357600080fd5b919050565b6000806040838503121561078b57600080fd5b6107948361075c565b946020939093013593505050565b6000806000606084860312156107b757600080fd5b6107c08461075c565b92506107ce6020850161075c565b929592945050506040919091013590565b6000602082840312156107f157600080fd5b6107fa8261075c565b9392505050565b60006020828403121561081357600080fd5b5035919050565b6000806040838503121561082d57600080fd5b6108368361075c565b91506108446020840161075c565b90509250929050565b600181811c9082168061086157607f821691505b60208210810361088157634e487b7160e01b600052602260045260246000fd5b50919050565b808201808211156102b757634e487b7160e01b600052601160045260246000fdfea26469706673582212206385b59a8223db63cd334bc426f988d2b91d8a5b112fcaa780ff95a4205b144a64736f6c634300081a0033a264697066735822122090d374a8ebbd4b07b686e4818075ef57d73b9c601586c4d5e988124e2f08317e64736f6c634300081a0033",
        "linkReferences": {}
    },
    "methodIdentifiers": {
        "WithdrawUnVestedTokens()": "279eda16",
        "addStakeholder(address,uint256,uint256)": "4beab898",
        "claimVestedTokens(address)": "98f3b12d",
        "getOrganization(address)": "d2c30a6d",
        "getOrganizationsForStakeholder(address)": "dddca3de",
        "getStakeholder(address,address)": "0e916501",
        "getTotalVestedAmount(address)": "d3715c76",
        "register(string,string,string,uint256)": "02110d25"
    },
    "id": 32
}